:020000041000EA
:1000000000200008EB0000100D0000004D01001062
:1000100000000000000000000000000000000000E0
:100020000000000000000000000000004901001076
:10003000000000000000000049010010490100100C
:100040004901001049010010490100104901001048
:100050004901001049010010490100104901001038
:100060004901001049010010490100104901001028
:100070004901001049010010490100104901001018
:1000800010B5064C2378002B07D1054B002B02D06E
:10009000044800E000BF0123237010BDB003000836
:1000A0000000000014150010044B10B5002B03D005
:1000B0000349044800E000BF10BDC0460000000036
:1000C000B4030008141500100230800803D001307A
:1000D0000238FCD1C046C0467047EFF3108072B6BC
:1000E000704780F3108870477047FFF7FDFF72B6C6
:1000F0000F4C104DAC4209DA21686268A368043BDA
:1001000002DBC858D050FAE70C34F3E70A490B4A2F
:100110000020521A02DD043A8850FCDC08480949E4
:100120000860BFF34F8F00F0EDFE00F09BFEFEE78E
:100130002015001038150010B0030008C80500088D
:100140000000000808ED00E0FEE7FEE700B504202F
:100150007146084202D0EFF3098002E0EFF3088015
:10016000043000F091FCFEE7014B18607047C04678
:10017000CC030008044B1B681A00BA3212881B6AB1
:100180005043C0187047C046CC030008A02300B5F8
:100190001B06984226D015D8802825D00AD81028CA
:1001A00024D0402824D000280BD0154809E0A420F2
:1001B000C00306E08022134B520090421CD09842AC
:1001C000F3D100BD104B984218D0104BC018042832
:1001D000EBD800F035FFECEA0F0305000C48F0E720
:1001E0000C48EEE70020ECE70B48EAE70B48E8E7AD
:1001F0000B48E6E70B48E4E71800E2E7A020D7E762
:10020000FF00520006005200090000A0FFFFFF0F90
:10021000020052000300520005005200010050008D
:10022000020050000100520010B50020FFF7A2FFAD
:100230000A4B1C682300BC331B68C0180368002BE2
:100240000ADB074B1868FFF7A1FF012263689A6079
:100250009A68002AFCD110BD0248FCE7CC030008D4
:10026000D003000802005000064B1B68BC331B681B
:10027000C3181B68002B03DA89B241600020704765
:100280000148FCE7CC03000801008A000368002B4A
:1002900004DA89B2C2608160002070470048FCE740
:1002A00001008A00064B1B68BC331B68C3181B681F
:1002B000002B03DAC36800200B6070470148FCE79D
:1002C000CC03000801008A00024B1A68002A00D102
:1002D00018607047E4030008F0B52C244443154827
:1002E0001F0000681E0A0019FF2426402740124CF8
:1002F0001B0C256807602C6A46608360BA352D8820
:100300006F433F190761370080377F01E7190B4DB5
:1003100076014761A4191F043B436419236000233D
:100320008361059BC2610162002B01D01B88838120
:10033000F0BDC046E4030008CC030008081000002C
:10034000F0B5836885B002AD2B800368066A173369
:100350006B804368476A0095826AC16A0400039310
:100360000369C068FFF7B8FF00213B000A003000B6
:100370000091FFF7B1FF2800216B00F039FB00224C
:10038000AB5E002B06DB1F2213401E3A9A4013007F
:10039000014A136005B0F0BD00E100E0F7B52C267E
:1003A000134C70434E43246801932518A4192E69F9
:1003B000002E19D0A069002818D13168002915DA5B
:1003C00001216F680D0063689D40AC4613689DB2C3
:1003D00063461B041D431560F260A161B940019B97
:1003E00089B26362B160FEBD0248FCE70248FAE7E9
:1003F000E403000804028A0007028A0073B500269D
:1004000042690400D56801962B0CB34221D01B042D
:1004100013601368194B00691B68BC331B68C31851
:100420001B68B34215DA01A9FFF73CFFB0420CD1BB
:100430000198E26903681E0CDBB29A4205D9226A70
:100440009B009B58002B00D0984731002069FFF794
:100450000BFFADB2002D09D063691D6000251B683C
:10046000636AAB4205D098476562A56163691B6802
:1004700073BDA36A002BF8D09847F6E7CC030008B9
:100480002C2310B54343034A1068C018FFF7B6FF8A
:1004900010BDC046E40300081A4B70B51A680C0082
:1004A000130033331B7883422AD9002928D00D68E2
:1004B0001F212B000B400D4222D11100BA310988B7
:1004C000126A48431900104D8018286022685209AA
:1004D000934210D30021FFF7C7FE002122002868B5
:1004E000FFF7D4FE011E04D12868FFF7BDFE0028E7
:1004F00000D0064870BD66689A0091510133E5E767
:100500000348F7E7CC030008E803000801018A006C
:1005100003018A0010B504000800002A0CD100294C
:1005200013D10B4B1A681300BA331B88126A63434A
:100530009B18084A136010BD002906D006490860C0
:1005400020004A60FFF7A8FFF5E70448F3E7C0463C
:10055000CC030008E80300087803000803018A00C0
:10056000F7B5184F04003B680191DE683368834299
:1005700026D90025A94202D1FFF7AFFD0500386852
:100580000368002B1ADA1F220123224093406409DA
:100590007268A4001419226813420DD09A43226095
:1005A00000240021FFF760FE019B002B02D12800F0
:1005B000FFF797FD2000FEBD034CF2E7034CF3E785
:1005C000034CF7E7E80300080201880003018800F4
:1005D00004018A000A4B1B68DB681A6882420DD945
:1005E00059681F23420918401E3B8340920050580F
:1005F0001840431E9841034BC01870470248FCE75F
:10060000E80300080001880004018A00054B1B680C
:100610001A0088321B6812689B181868000AC0B25A
:100620007047C046CC030008044B1B681A00883290
:100630001B6812689B181868000E7047CC030008EE
:10064000034BE0308000C0588006800F7047C046E2
:1006500000002640024B18694007C00F7047C04693
:1006600000002740A6220549D2008B580220DB4318
:100670009B0702D00123885818407047000026408D
:1006800010B5FFF7EFFF0023022801D1014B1B68D3
:10069000180010BDF0030008094A83009B18D022FF
:1006A0009200985807221040042807D1C0229200D7
:1006B00098581F2303408020400018437047C046CD
:1006C0000000264010B5FFF7E7FF88235B00984243
:1006D0001AD009D8012811D0022812D0434258411B
:1006E000114B4042184010BD1223FF33984213D0E3
:1006F0001423FF33984214D00020F4E70B4B186802
:10070000F1E7FFF7BDFFEEE7094A0A4BD358002B8C
:10071000F2DA80200002E6E7FFF79CFF0028EBD02A
:10072000F7E7034A044BF1E700127A00EC030008F4
:10073000000026400C0500003C050000B023154ACF
:10074000DB00D35810B59903DB01DB0F890BC371B4
:10075000114B0160D3580F24D904DB01DB0D038159
:10076000B123DB00D358C90C81801900214081726C
:1007700019092140C172D9029B009B0F8373074B5B
:10078000C90CD35881815A05DB01520FDB0D8271F0
:10079000038210BD00002640840500008C05000087
:1007A0008030034BFF308000C058C00F7047C046F8
:1007B0000000264010B5104B421E1B683F331B78CB
:1007C000934216D97F221F2480300C4BFF308000CB
:1007D000C3581A400A701A0C2240180A8A701A016B
:1007E0002040E240487000209B009B0FCA700B71B4
:1007F00010BD0348FCE7C046CC03000800002640BB
:1008000001004A00F0B589B003AC2000FFF796FF65
:10081000B0231A4ADB00D25800239A4203DAA37BA2
:10082000023B5A1E9341E57900266A1E9541013527
:10083000B34220D0A488B4421DD03000039FFFF7FC
:1008400041FF2A00330031000190200000F0AEFC8F
:100850000C00050033003A003100019800F0A6FCBE
:10086000E6076A0832436308801859412A002300CA
:1008700000F07CFC0600300009B0F0BD000026400E
:10088000F7B5234B06001B683F331B78002B08D0BD
:1008900000283BD0834204D36946FFF78BFF041E38
:1008A00001D0002632E03000FFF77AFF2300002855
:1008B00005D06B461C79023C23005A1E93416A46C0
:1008C0005478002BEDD0002CEBD09578002DE8D09B
:1008D00030001778FFF7F6FE002306002A002000FC
:1008E000190000F063FC00230C0005003A00300002
:1008F000190000F05BFCE6076A08324363088018C1
:1009000059412A00230000F031FC06003000FEBDF2
:10091000CC03000810B5041E04D1FFF773FF0028B4
:1009200006D008E0064B1B683F331B78834203D296
:100930002000FFF7C7FE10BDFFF7A2FFEFE7C0469C
:10094000CC03000870B50500FFF77AFEE035074BD1
:10095000AD000400E8580F231840FFF7DBFF012328
:10096000A3405B081818E04070BDC0460000264058
:10097000144B30B51C6823002C331A7807231F2A28
:1009800015D8820815009D432B1E0FD10333184044
:10099000984081402368920020339B180A00FF2171
:1009A00081401C68624011406140196030BD1840B0
:1009B00080231B06184380239B012268C9188900E5
:1009C0008850F3E7CC030008064B10B59A68064C34
:1009D00010308300A24202D19858995010BD034AAA
:1009E000D058FBE700ED00E0000000080000001018
:1009F000F8B506000D0000283AD00023C05E00289C
:100A000028DB7188FFF7B4FF0024FF2203279446F8
:100A10000023F05E71680740FF006646BA40890116
:100A20003140D243B94083B2002815DB114E830810
:100A30009B009B19C026B6009F593A40114399511B
:100A40000D4B9A680D4B9A4202D12900FFF7BCFF6B
:100A50002000F8BD0A4CD8E70F263340083B064E6D
:100A60009B089B009B19DE6932401143D961E7E77F
:100A7000034CEDE700E100E000ED00E000000008BD
:100A800001005600FEE7000002680A4B10B51A602C
:100A900042685A6082689A60C268DA6002691A61C4
:100AA00042695A6182699A61C269DA61FFF7EAFFB5
:100AB00010BDC04690030008B0235B055A78212082
:100AC000002A01D05878C0B27047B0235B059A89DC
:100AD000002A02D0988980B2704780204000FBE74E
:100AE0007FB5274B86000D00F458042901D0012959
:100AF00027D100200FE0A3682B420BD1E368290027
:100B00001A685B6802920193039302A823689847CE
:100B10001C4B1C606469002C0BD01B4B9842EAD123
:100B2000012DE8D1174B18481A68184B9A5104B098
:100B300070BD012DFBD1144B9842F3D0134B9C5147
:100B4000F5E7022915D026006469002CFBD10020AE
:100B5000002EECD0B3682B4209D1F36829001A6843
:100B60005B6802920193039302A833689847366941
:100B7000EEE7044B1B68181ED9D01E69E7E7C04694
:100B80003404000830040008FF0042001C04000880
:100B90001A4B1B68190088311A68096851180968CE
:100BA000016219008C3109685218126842621A00F9
:100BB00046321278002A1FD09A68E0321268D206B4
:100BC0001AD5F222DB68D2019A580260F022D201D3
:100BD0009A5842600A4A9A5882600A4A9A58C260F1
:100BE000094A9A580261094A9A584261084A9A5831
:100BF0008261084A9B58C3617047C046CC03000815
:100C000004780000087800000C78000010780000DC
:100C100014780000187800001A4B1B681A008832FC
:100C2000196812688A18016A11601A008C321968F2
:100C300012688A18416A11601A0046321278002A36
:100C40001ED09A68E0321268D20619D5F0224168A7
:100C5000DB68D201995081680B4A9950C1680B4AF0
:100C6000995001690A4A995041690A4A9950816923
:100C7000094A9950C169094A99500168E832995066
:100C80007047C046CC0300080478000008780000D4
:100C90000C7800001078000014780000187800002C
:100CA000F7B50700FFF708FF5D4D06006B68002BE6
:100CB00000D07DE0FFF711FA6B680090002B00D0A8
:100CC00089E0584C22681300BA33198807234B4334
:100CD000126A9B181A68002AFCDADB68DA0021D550
:100CE0001B0F1B0750480193FFF752FF20684F4925
:100CF000030088331C6803681C1923680B40212EED
:100D000000D06DE0902212011343236003008C3366
:100D100000681B68C318186801400A431A60424BF8
:100D2000019A134380223F4E9205316813430A0013
:100D3000BA321088072200244243096A5218D3604D
:100D400054605368FFF7C1FE80235B0098424AD18C
:100D5000380000F05DFB32681300BA3319880723AE
:100D60004B43126A9B181A68002AFCDADF68FB0002
:100D700003D538010009FFF74FFF2D4B32681F40A4
:100D80001300BA33198807234B43126A00989B1843
:100D90000022DF605A60FFF7A4F9002C0FD16B68C6
:100DA000002B03D008210120FFF79AFE2000FEBD92
:100DB00001210800FFF794FE041E00D17AE76B685A
:100DC000002B03D002210120FFF78AFE194B9C4221
:100DD000ECD0194CEAE704210120FFF781FE70E70F
:100DE0008022520090E733681A00BC32196A1268F8
:100DF00052181168002910DBBA331B889A1813683F
:100E0000002B0ADB04230D4A11690B431361012FE8
:100E100001D030BF9FE720BF9DE7064C9BE7C0464F
:100E200034040008CC030008F4030008FF00FFFFAF
:100E3000FFFFFFDF05004200FF00420000ED00E081
:100E4000C0228020064952008B58C0059B009B0899
:100E500003438B50802388581B0603438B507047F5
:100E60000000264010B562B6034800F0C3F8002029
:100E7000FFF716FFFBE7C0460020001010B500206A
:100E8000FFF7FEFA10BD704710B50020FFF75AFDBE
:100E9000041E28D0144B1860FFF7C6FB411C20002D
:100EA00000F0D8F8114B04001860FFF7AFFB411CAD
:100EB000200000F0CFF804000D4B013C18600D49F4
:100EC000200000F0C7F8FA210B4B013018708900A0
:100ED000200000F0BFF8094B013018600020FFF738
:100EE00031FD074B186010BD880000088C00000819
:100EF0008000000840420F009400000890000008A5
:100F00008400000810B52048FFF72EF9B022E02138
:100F100030201E4CD200A35889005B005B08A35010
:100F200063588343635080235B04A350184B194AD2
:100F3000E250A02204339201E250FF22164BE2500D
:100F4000FFF77EFFC02201215200A3588B43A3501C
:100F5000FFF799FFFFF798FF104B03201A68130063
:100F6000BA33198807234B43126A80219B18002249
:100F7000DA605A600A4AFFF7CDFA0A48FFF7A4F987
:100F80000948FFF7DDF910BD2014001000002640CD
:100F900084050000010002008C050000CC0300085D
:100FA0008003000848040008E01400109023034A5E
:100FB0005B01D058032318407047C0460000204012
:100FC00010B59024FFF789F8074B64011A590749B7
:100FD0001140074A0A431A51102259681142FCD0A5
:100FE000FFF77FF810BDC04600002040FCFF000066
:100FF0000100FA05F8B590260E4C76010700FFF7C0
:101000006CF8A3590500DB439B0701D1FFF7D8FF1C
:1010100080239B00E750A359074A1A40074B13430C
:10102000A351102362681A42FCD02800FFF759F838
:10103000F8BDC04600002040FCFF00000300FA0598
:1010400002B4714649084900095649008E4402BC61
:101050007047C046002243088B4274D303098B4279
:101060005FD3030A8B4244D3030B8B4228D3030C78
:101070008B420DD3FF22090212BA030C8B4202D31A
:101080001212090265D0030B8B4219D300E0090A42
:10109000C30B8B4201D3CB03C01A5241830B8B424B
:1010A00001D38B03C01A5241430B8B4201D34B0334
:1010B000C01A5241030B8B4201D30B03C01A524199
:1010C000C30A8B4201D3CB02C01A5241830A8B421E
:1010D00001D38B02C01A5241430A8B4201D34B0207
:1010E000C01A5241030A8B4201D30B02C01A52416B
:1010F000CDD2C3098B4201D3CB01C01A524183091F
:101100008B4201D38B01C01A524143098B4201D358
:101110004B01C01A524103098B4201D30B01C01A83
:101120005241C3088B4201D3CB00C01A52418308FD
:101130008B4201D38B00C01A524143088B4201D32A
:101140004B00C01A5241411A00D20146524110468A
:101150007047FFE701B5002000F006F802BDC04669
:101160000029F7D076E770477047C046002B11D1B1
:10117000002A0FD1002900D1002802D00021C94344
:10118000080007B4024802A14018029003BDC046FF
:10119000D9FFFFFF03B4684601B5029800F034F8A8
:1011A000019B9E4602B00CBC7047C046F0B5CE46CF
:1011B000474680B5070099463B0C9C4613041B0C20
:1011C0001D000E0061460004140C000C45434B4307
:1011D00060436143C0182C0C20188C46834203D90D
:1011E00080235B029846C444494679437243030C0A
:1011F00063442D042D0CC918000440198918C0BC83
:10120000B946B046F0BDC046F0B557464E464546D5
:10121000DE46E0B504000D009246994683B08B424D
:1012200030D82DD04946504600F0D8F829000600A5
:10123000200000F0D3F8331A9846203B9B4633D465
:101240005A465346934042461F00534693401E0061
:10125000AF423AD8AF4200D178E05B46A41BBD4113
:10126000002B00DA75E00022002300920193012395
:101270005A4693400193012342469340009328E04D
:101280008242CFD900220023009201930C9B002BB5
:1012900001D01C605D600098019903B0F0BCBB46B2
:1012A000B246A946A046F0BD424620239B1A5246AC
:1012B000DA40414613004A468A40170042461F431F
:1012C000534693401E00AF42C4D90022002300922F
:1012D00001934346002BD9D0FB0772081A434646B8
:1012E0007B080EE0AB4201D1A2420CD8A41A9D416A
:1012F000012024196D410021013E24184D41002E8A
:1013000006D0AB42EED9013E24196D41002EF8D132
:10131000009801995B4600196941002B24DB2B00E2
:101320005A464446D3402A00E2401C005B46150062
:10133000002B2ADB26009E40330026004746BE4095
:101340003200801A9941009001919FE7A342BCD8D6
:1013500083E74246202300219B1A0022009101923C
:101360000122DA40019286E7424620239B1A2A0096
:1013700046469A402300F340444613432A00E24085
:101380001C005B461500002BD4DA42462F002023B8
:10139000260097409B1ADE403B003343CDE7C04612
:1013A0001C2101231B04984201D3000C10391B0A95
:1013B000984201D3000A08391B09984201D3000959
:1013C000043902A2105C40187047C04604030202B0
:1013D00001010101000000000000000010B500291B
:1013E00003D1FFF7DDFF203002E00800FFF7D8FF50
:1013F00010BDC046F8B5C046F8BC08BC9E46704754
:10140000F8B5C046F8BC08BC9E4670470000000016
:1014100001B40248844601BC604700BF6102000875
:1014200000002040000024400000004000000000B8
:1014300000002340000030400000314000009F4089
:10144000000022400000104000009D40202020208D
:1014500020101010101D1D8017007500FF030602DC
:1014600006003604102000007FC0000000040000C9
:10147000000000000019324B647D00000000008075
:101480004000080B100000000000FF012002001FB8
:1014900000800004FF081018001000140018001C41
:1014A0004044484C500000000810000008000000B4
:1014B00004000000041000000012000004210000DD
:1014C000002100000016000040114002C413001368
:1014D0008013A01340138813A81320001C000000E1
:1014E00003000000010000000100000000000000F7
:1014F000050360000400000001000000000000007F
:10150000010000000604600008000000A8050008B3
:101510007D0E001000000000F0FCFF7F01000000C5
:1015200000000010000000088000000040150010BE
:1015300080000008F8020000B00300081802000054
:1015400000093D0000093D0000127A0000093D003D
:10155000A00F000004000000A9000010810000108E
:1015600080B230B5C400002820D0114B0722186883
:101570000300BA331B885343026A9A181168002982
:10158000FCDA3E210B4A062511600B4A0B4911601B
:10159000A3210B4AC90055500A495450006A5458B7
:1015A0001B18002058605358002BFCDA30BDC04691
:1015B000CC03000804012640080126401E1F00003D
:1015C000000026401C05000010B54378FF2B11D108
:1015D00000F0FAF80400032000F00EF90121C368BE
:1015E0005B681A680A431A601A680A42FCD1200034
:1015F00000F01AF910BDF7B507000020019100F0C6
:10160000FBF83E4C050023681A005033BC321668C4
:101610001B788619002B59D000F0F6F800900328AB
:101620001AD000F0D1F8364A364B0400D358002BBC
:101630003CDA01212800344A00F0D6F8002835D1E0
:101640000198FFF78DFF002F3ED03368002BFCDBA5
:1016500000F0B2F805002AE0062000F0CDF823687B
:10166000BC331B68C0180368002B02DA274D280022
:10167000FEBD002000F0B0F8254B9842F6D00023C4
:10168000244A19000120126800F0C6F8041EEDD1AA
:10169000002000F0A1F81E4A1F4B904203D09C424C
:1016A000E4D00134F4E79C42BBD1DFE7174D009B47
:1016B000032B05D10121002000F076F80028F9D194
:1016C000200000F0B1F8D2E7144DF0E700F07CF80C
:1016D000012104000C4A280000F086F8002808D1F7
:1016E000002F08D03368002BFCDB00F065F8050004
:1016F000E6E7064DE4E7094DE2E7C046CC03000803
:10170000000026401C050000D00300080500520020
:1017100001018800E0030008F049020001005000C8
:10172000184BF7B51B6818495A6804230C69234302
:101730000B61012824D030BF1300FC331B69002B40
:101740001DD1A324114B12481249E40007681E5909
:101750000D680195104D056006251D513E240C6055
:101760000E4C3E351D511D59002DFCDA0C4CFC323F
:101770001461A322D20007609E50019B0B60F7BD4D
:1017800020BFD9E7CC03000800ED00E000002640B0
:1017900008012640040126401E1F00001C05000011
:1017A000AAAAAAAA0000000001B40248844601BC0B
:1017B000604700BF6105001001B40248844601BCC7
:1017C000604700BF2902001001B40248844601BCF2
:1017D000604700BFDB00001001B40248844601BC32
:1017E000604700BFD505001001B40248844601BC23
:1017F000604700BF8D02001001B40248844601BC5E
:10180000604700BF7501001001B40248844601BC66
:10181000604700BFAD0F001001B40248844601BC10
:10182000604700BF9D03001001B40248844601BC1C
:10183000604700BFE300001000000000000000004F
:101840000000000000000000000000000000000098
:1020000000F80F08252300100D0000009923001090
:10201000992300109923001099230010000000005C
:1020200000000000000000000000000095230010E8
:102030009523001000000000952300109523001048
:102040009523001095230010952300109523001070
:102050009523001095230010952300109523001060
:102060009523001095230010952300109523001050
:102070009523001095230010952300109523001040
:1022E00010B5054C237833B9044B13B10448AFF350
:1022F00000800123237010BD242A00080000000084
:10230000BC8B011008B5034B1BB103490348AFF365
:10231000008008BD00000000282A0008BC8B0110C6
:1023200070477047FFF7FCFF72B6144C144DAC4277
:1023300009DA21686268A368043BA2BFC858D0507C
:10234000FAE70C34F3E70F490F4A00209142BCBF73
:1023500041F8040BFAE70D480D490860BFF34F8FB1
:1023600000F084F800F068F8FFF7DBFF0EF086FA63
:1023700000F006FB0EF06EFAFEE70000FC0A041007
:10238000140B0410242A0008AC37000800200008B1
:1023900008ED00E0FEE7FEE700B5042071460842C4
:1023A00002D0EFF3098002E0EFF30880043007F079
:1023B00013FBFEE708B5012005F0D6FA08BD70470B
:1023C00010B5002007F0D2F900B910BD0446124B39
:1023D000186006F03BFB0130B4FBF0F00F4B1860C7
:1023E00006F04CFB0130B4FBF0F40D4B1C60013CDB
:1023F0000C4BA3FB04239B0C01330B4A13700B4BB8
:10240000A3FB0434A4090134094B1C60002007F02D
:10241000ADF9084B1860D8E7E8220008EC22000864
:10242000E022000883DE1B43F4220008D34D621033
:10243000F0220008E422000808B5094804F082FBF5
:10244000FFF7BDFFFFF7BCFF00221146032005F098
:10245000E7FA044805F030F9034805F085F908BDAE
:1024600004530110402A000894450110EFF3108135
:1024700072B6074AD2F8883043F47003C2F8883045
:10248000BFF34F8FBFF36F8F81F31088704700BF8A
:1024900000ED00E008B500F0CBF800F00FF800F018
:1024A000BDF800F047F800F04DF808BD08B500F0A1
:1024B000BDF900F02DF800F05FF808BD08B50F2158
:1024C000012006F0C9F900220F21012006F038F89A
:1024D0000F21012006F07EF90021084606F0BCF924
:1024E00000221146104606F02BF80021084606F09F
:1024F00071F90721002006F0AFF9002207211046EC
:1025000006F01EF80721002006F064F908BD00005F
:1025100008B5054802F0D6FA044802F0D3FA044898
:1025200002F0D0FA08BD00BFD0450110C845011027
:10253000CC45011008B5002211462F2006F00EF9F7
:1025400008BD000010B5084C084A0421204604F0DC
:10255000C9FF074A0621204604F0C4FF054A0721A7
:10256000204604F0BFFF10BD00033140704601104B
:10257000384601100046011008B5184802F0A2FACA
:10258000174802F09FFA174802F09CFA164802F02A
:1025900099FA164802F096FA154802F093FA15488F
:1025A00002F090FA144802F08DFA144802F08AFA08
:1025B000134802F087FA134802F084FA124802F036
:1025C00081FA124802F07EFA114802F07BFA1148B3
:1025D00002F078FA104802F075FA08BDA84601101A
:1025E000AC460110E8450110A44601106C460110EC
:1025F00034460110D4450110D8450110DC450110C6
:10260000E0450110E4450110EC450110F0450110D2
:10261000F4450110F8450110FC450110024B33222E
:102620009A601A61704700BF00203040FEE700004A
:1026300030B583B007220021322006F08FF89621B2
:10264000002007F01BFA07F087F9C0B96F4BD3F8E9
:10265000004F04F03F0407F06FF930B1012007F09C
:1026600061F96B4B9B6C002B26DB684BC3F8004F6A
:1026700006F0EAFA06F0DEFA012006F0F9FA012087
:1026800007F00CFD07F0B2FC07F08CFD07F076FDBB
:1026900006F0D6FB0021084606F074FA002006F08A
:1026A000DFF9012006F0C4F9002006F051F9594B7A
:1026B0001B6893F83F4006E00620FFF7B7FF20466F
:1026C00006F0FAFC013C002CF9D10021012006F0B3
:1026D00003FB002006F044FA00287BD000210846C6
:1026E00006F0FAFA0021084606F01AFA4A4D0024CC
:1026F0000094234622462146284604F00FFE00940B
:10270000234622460121284604F008FE434806F0ED
:1027100073FA00286AD1012006F07AF9002006F049
:102720009FF9002006F084F9002006F011F900213D
:10273000012006F0D1FA0021084606F0CDFA00216A
:10274000022006F0C9FA0021032006F0C5FA002194
:10275000042006F0C1FA0021052006F0BDFA304839
:1027600006F088FB002844D12E4806F033FC0028F0
:1027700042D10021084606F0D3F90021084606F0B0
:1027800001FA2949012006F0BDFCC0BB42F21071DC
:10279000012006F0DFFDA8BB06F030F9002006F0AE
:1027A00001F9002006F014F906F01EF90021084690
:1027B00007F058FD012006F0E5F806F03BFA01208D
:1027C00006F056FA6421002007F058F9FFF7F8FDEB
:1027D00003B030BD06F0AEFA40F2111398427FF418
:1027E0007DAF0121002006F09BF977E70520FFF778
:1027F0001DFF0420FFF71AFF0420FFF717FF032037
:10280000FFF714FF0320FFF711FF00BF00F0274080
:1028100000002740803600080000314040420F0091
:10282000B0460110400D0300DC46011008B5094810
:1028300002F048F9084802F045F9084802F042F968
:10284000074802F03FF9074802F03CF9064802F059
:1028500039F908BDC4460110C8460110CC46011024
:10286000D0460110D4460110D846011008B50448DE
:1028700007F086FA08B1002008BD0248FCE700BF57
:10288000F82200080000020610B502F019F904460B
:1028900038B154B1FFF7FEFDFFF708FE5CB12046EA
:1028A00010BD03F055FB0446F3E740F6E441002079
:1028B00003F096FBEEE7FFF7D9FF0446EFE70000D1
:1028C00008B50F4B1B788BB14FF4F0720D490E48D1
:1028D00002F082FF0D4B0E4A1A60094A137883F00A
:1028E000010313700B4B01221A7008BD4FF4F072F4
:1028F0000749054802F070FF044B024A1A60ECE7F2
:1029000018340008982C0008D02B00081423000865
:1029100058300008942C000808B513460A460146B2
:1029200001480EF09BFD08BDE446011038B50F4C80
:102930000F49204601F054F800220E49204601F0CC
:10294000BAF801221146204601F081F80A4D0B49E0
:10295000284601F045F82146284601F0DAF8012220
:102960001146284601F073F838BD00BF1C3400083A
:10297000A850011000007701C82B000880500110FA
:1029800010B582B0FFF780FF00B101BE62B6FFF75D
:10299000CDFF4FF4E1322821292007F009FE204C19
:1029A000204B0093204B54225521204602F020FC5E
:1029B00000221E49204602F099FF01230322102124
:1029C000204602F09FFF204602F036FB4FF4F072E3
:1029D000174B1968204602F0FFFE16480EF03EFD28
:1029E00015480EF0C1FD06F0D1FF024613480EF067
:1029F00035FD134800F01AFC00B9FEE711480EF04F
:102A0000B3FD08E0104B00221A704FF4F071084B30
:102A1000186800F0B3FA0C4B1B78002BFBD0F1E7E1
:102A2000D02B000890470110C82B0008C1280010C7
:102A300014230008F4460110004701102447011038
:102A40001929001050470110942C00082DE9F04777
:102A500082460C4690461E469DF82050D0F800C095
:102A6000D2F8009037E0002D4ED103205BE0002D1E
:102A70004AD1A3F55C42B2F5806F45D2032052E003
:102A80004FF0010E704609EB0E02B24253D8F146E8
:102A900013E04FF0020EF5E74FF0030EF2E74FF0B0
:102AA000030E4FF6FD73EDE703F03F0C4CF0800C86
:102AB00002F801CD9B090EF1FF3EBEF1010FF3DCE0
:102AC0001E4F17F809C04CEA030302F8013C013815
:102AD00002EB00098C46A44524D2614631F8023B42
:102AE000A3F55842B2F5806FC1D28C4221D9BCF80F
:102AF0000200A0F55C4EBEF5806FB4D200EB8223DD
:102B000003F510530CF104017F2BB9D9B3F5006F15
:102B1000BFD3B3F5803FBFD3B3F5881FBFD24FF00B
:102B2000040EAFE70020CAF800C0C8F80090BDE866
:102B3000F0870120F7E70220F5E700BF9C4701106E
:102B4000022909DD0378FF2B01D00020704743786C
:102B5000FE2B03D0002070470020704701207047F3
:102B600010B50446042204490DF0D6FE08B9606889
:102B700010BD4FF0FF30FBE7A4470110072906DD29
:102B800008B5FFF7EDFF072803DD012008BD002091
:102B900070470020FAE72DE9F84F06460F46FFF789
:102BA000EDFF58BB044639463046FFF7C9FF814662
:102BB00048BB354655F8048B4FEA880A05EB880B6D
:102BC000B8F1640F1CDC04460FE004F18043013BC4
:102BD00055F8230050442844831BBB4210DC55F8B1
:102BE0002410FFF7CBFF80B10134444503DA002CF9
:102BF000EBD15846F0E74FF0010901E04FF0000932
:102C00004846BDE8F88FA146FAE78146F8E7F8B5EF
:102C100004460D46FFF7B2FF68B90646294620462E
:102C2000FFF78EFF074638B929462046FFF7B3FF66
:102C300020B9012600E000263046F8BD3E46FBE7FD
:102C400070B506460D46FFF799FF60B10824A5F15F
:102C50000803A34206DD3019FFF782FF072803DCD3
:102C60000834F4E7002070BD0120FCE748B108B546
:102C700042680AB9002008BD002242600DF044FEFF
:102C8000F8E70020704708B1C06970474FF0FF3087
:102C90007047D0B110B400F1040C04680CEB840050
:102CA00012B15CF82130136061B10123A34209D253
:102CB00003F18042013A5CF822201044994201D08D
:102CC0000133F3E75DF8044B704770472DE9F0439B
:102CD00083B005461E46002943D00C461F2A4FDD0F
:102CE00000234B609846002C4DD0D5F8009025600D
:102CF000C4F8189009F1FF3701AA39462846FFF7B2
:102D0000C8FF0199FFF783FF606100B94F4607F1E3
:102D1000FF3901AA49462846FFF7BBFF0199FFF793
:102D20003AFFE06000B9B94609F1FF3701AA394618
:102D30002846FFF7AEFF0199FFF782FF206100B937
:102D40004F46013F01AA39462846FFF7A2FF0199E5
:102D5000FFF7F6FEA06088B107EBD7777F10E76139
:102D600011E020200DF0C8FD044620B1012343608E
:102D70004FF00008B7E76FF00108B4E7E76102E041
:102D80006FF0010800240EB1C6F80080204603B0A1
:102D9000BDE8F08308B520B1002211460068FFF7B6
:102DA00078FF08BD08B538B1C2698A4205DD002246
:102DB00001310068FFF76DFF08BD0020FCE7034606
:102DC00058B1C069884209DD10B59C6844B1013131
:102DD00001441868FFF75DFF10BD70470020704781
:102DE0000020F9E708B538B1426932B181690022A3
:102DF00001390068FFF74DFF08BD0020FCE738B53A
:102E000005460C46FFF7EEFF30B1EB69A34204DD47
:102E100000222146FFF73DFF38BD0020FCE72DE9E9
:102E2000F0438FB08046002800F0A0800E46154683
:102E30001F46C3698B4240F39B800DAAFFF7BFFF7B
:102E40000023089309930A930B930C9304460028DC
:102E500000F08180002294461CE004EB4C010891B4
:102E600022E0099929B10A9929B10B9911BB0B905C
:102E700020E009901EE00A901CE00C906B1C93422D
:102E80001FD001320023089309930A930B930C93EC
:102E90000CF1010C0D9800EBD0704310BCEB600FEF
:102EA00058DA08990029D8D004EB4C0034F81C10EB
:102EB0000929D6D001880A29DFD0013B6345E7D133
:102EC000DBE7002405940694ADF81C400A9B02330E
:102ED000039305AB049300940DF11D0304AA0B9911
:102EE00003A8FFF7B3FD049B1C70B7B105A80DF054
:102EF000A5FC10F1640F01D13C7029E0089B0393FD
:102F00000497169B013B002400943B4404AA0999B2
:102F100003A8FFF79BFD049B1C70179BC3B10B9B81
:102F20000233039305AC04944FF00009CDF80090F0
:102F30000DF11D0304AA0C99023903A8FFF786FDC1
:102F4000049B83F8009020460DF078FC179B1860D6
:102F50003C4600E03C46189B5BB131464046FFF7DB
:102F60004EFF30B1435D189A137002E0044600E052
:102F7000002420460FB0BDE8F08300007B4B1B68A7
:102F8000002B00F0F2802DE9F0419EB005460C4682
:102F9000774B1B6833B1774A13680B441360764A4A
:102FA00093420FDC22462946704B186807F0DCFC80
:102FB0001D90002834D0714B984200F0CA801EB09A
:102FC000BDE8F0816E4B1E680A2219A96A480DF00F
:102FD00091FC02466B496C48B047654A1368B3FAE6
:102FE00083F35B091360694B1868FFF7D3FE684BE6
:102FF00005931DAB0493002303930293654B1B6859
:103000000193654B1B6800934FF4FA7301226349E7
:10301000096807F067FC554B186007F071FDC1E7C0
:10302000524C206807F02CFD064600231A4607A9DB
:10303000206807F02BFD206807F05AFD07464C4B2F
:103040001B68002B71D1514D0024029408AB0193F1
:103050004023009309AB324621462868FFF7DFFE84
:103060002868FFF797FE4D4B1968494B05931DAB38
:10307000049303940294474B1B680193464B1B68CF
:1030800000934FF4FA730122043107F02BFC374B05
:10309000186007F035FD374B1C60354A1368B3FAEA
:1030A00083F35B0913603E4909A80EF0BBFA08B12F
:1030B00000220270344C324D2B683A4A3A4920467D
:1030C00098472B6809AA394920469847D5F80080C7
:1030D0000A2219A930460DF00DFC0246344920465B
:1030E000C0472E680A2219A908980DF003FC024671
:1030F00030492046B0472E680A2219A907980DF0DA
:10310000F9FB02462C492046B0472E680A2219A92D
:1031100038460DF0EFFB024628492046B0472B68A1
:10312000274A28492046984749E70024029408ABDB
:1031300001934023009309AB3246012113480068F4
:10314000FFF76DFE094B186807F0F6FB094B1C6092
:10315000A9E70B4B1C680A2219A908480DF0CAFB05
:10316000024619490848A04729E770472C3400084F
:10317000243400084434000800710200CCF7FFFF3B
:1031800034340008AC4701101049011028340008FD
:10319000380A04104034000830340008383400087D
:1031A000C8470110CC470110D0470110EC4701106F
:1031B000F447011000480110084801101C48011094
:1031C0002C480110304801104C48011008B5124B32
:1031D000186820B107F0A2FB0F4B00221A600F4BBA
:1031E000186820B1FFF742FD0C4B00221A600C4B0F
:1031F000186820B10DF088FB094B00221A60094BBA
:10320000186820B10DF080FB064B00221A60064BB7
:1032100000221A6008BD00BF2C34000828340008C2
:10322000383400083034000824340008002800F046
:10323000D28070B58CB0694A1060694B1B680BB1C5
:10324000FFF7C4FF0BAB002211466648FFF73EFDB7
:10325000654B1860D0B1FFF716FD644B186001286C
:1032600024DD5E4B1C680A2207A90DF043FB0246D1
:103270005F496048A0475D4B1C68A40020460DF0E4
:103280003BFB5D4B1860E0B1002430E0534B1C6801
:103290000A2207A90B980DF02DFB02465749554805
:1032A000A047FFF793FF00200CB070BD4B4B1C688C
:1032B0000A2207A90DF01EFB024651494D48A047BE
:1032C000EFE7464B1D680A2207A920460DF012FBC6
:1032D00002464C494748A847E3E7474B1D6821464B
:1032E000414B1868FFF75EFD45F8240001343F4B61
:1032F0001B68A342F1DC3C4E3068FFF74BFD3E4DAE
:103300004FF4FA730122296807F000FB0446306885
:10331000FFF740FD29684FF4FA730122043107F0EA
:10332000F5FAA042B8BF2046374C20602B4B1D68F1
:103330000A2207A90DF0DEFA024634492D48A847B3
:10334000246820460DF0D8FA314B186000B3264BA4
:103350001868FFF71FFD2F4B05930BAB0493002359
:1033600003930293284B1B680193294B1B6800931E
:103370004FF4FA7301222049096807F0B3FA184B99
:10338000186088B107F0BCFB0B90C8B901208BE72F
:10339000124B1D680A2207A920460DF0ABFA02461F
:1033A00018491448A8477CE70C4B1C680A2207A957
:1033B0000B980DF09FFA024617490E48A04770E798
:1033C000064B1C680A2207A90DF094FA024613491D
:1033D0000848A04765E70020704700BF3434000864
:1033E0002C340008C08B0110283400083C3400083D
:1033F000AC48011024490110383400087848011005
:1034000094480110C048011040340008D44801100D
:1034100030340008380A0410E4480110FC48011058
:103420000230800803D001300238FCD100BF00BF59
:103430007047EFF3108072B6704780F310887047C2
:1034400001BE0148704700BF0202020401BE0148EC
:10345000704700BF0202020401BE0148704700BF6E
:103460000202020408781060002050604A781A6056
:103470008A78009B1A6070474378181D034B03EB52
:1034800080030B6001231360002070475C23000859
:10349000024B0B6009231360002070475C23000877
:1034A00008B5407806F062F908BD000038B5054659
:1034B00014468A4294BF00230123834209D080F03E
:1034C00001038A422CBF002101218B4201D04DB162
:1034D00038BD06F085FD0549A1FB0431890C06F0D5
:1034E000CDFAF4E7FEF76CFFF2E700BF83DE1B4383
:1034F00008B54078013005F0B7FD08BD2DE9F0476B
:103500008CB005460F4644780134E4B20AA920463F
:1035100005F060FE064618B130460CB0BDE8F087F5
:10352000204605F0A1FD804600284DD1002EF3D1A4
:10353000204605F01DFC814600220023CDE904232E
:103540000296039603AB009302AB04AA0AA928468D
:10355000FFF788FF049BA3FB0931059809FB0011C5
:10356000029A039800FB02F250081818334641F102
:1035700000010CF0E1FF8146304605F023FB29FAFB
:1035800000F927FA00FA304605F0EAFA0546A042AB
:103590001FD0204605F0ECFB0790089700238DF81C
:1035A00024308DF8253007A9204605F039FE06465F
:1035B000B8F1000F13D1A542AED1CEB9524649465B
:1035C0000020FFF773FFA7E7204605F075FD0646CC
:1035D000ACE7524649460120FFF768FFD9E742F2BF
:1035E0001071204605F0B6FE002EE4D10646E2E753
:1035F0004A4651460020FFF759FF8DE72DE9F04F6D
:1036000089B005460E4690464478013406A9204606
:1036100005F0E0FD074618B1384609B0BDE8F08F67
:1036200005F0D0FA8246204605F0A2FB8146002232
:103630000023CDE904234FF0000BCDF808B0CDF8FE
:103640000CB003AB009302AB04AA06A92846FFF70F
:1036500009FF0498A0FB0901059B09FB0311029ACD
:10366000039B03FB02F25308C0185B4641F10001C3
:103670000CF062FFEEB120FA0AFB29FA0AFA0020E8
:1036800005F06EFA0546A04218D0EEB1B8F1000F71
:1036900001D042F210773946204605F05BFE07461E
:1036A000A542B9D1AFB95A4651460020FFF7FEFEF8
:1036B000B2E729FA0AFB20FA0AFAE0E75A4651462D
:1036C0000120FFF7F3FEE0E7204605F0F5FC074692
:1036D000E6E7524659460020FFF7E8FE9CE708B5AA
:1036E0004078013006F022F808BD00002DE9F041D5
:1036F00004460A78A2F10D03DBB2012B04D90F2A8C
:103700002FD14E78013600E04E78002005F05AFAAD
:103710000746002005F024FA06F008F820FA07F81A
:10372000304606F003F820FA07F763786BB1F1B280
:10373000607805F0F5F9054663789BB958B93A46C3
:1037400041460020FFF7B2FE0CE03A464146012018
:10375000FFF7ACFEEBE7424639460020FFF7A6FE36
:1037600000E0024D2846BDE8F08100BF01020204DE
:10377000F8B505460139072935D8DFE801F00426F8
:10378000340634343424002600E00226002005F0FC
:1037900019FA0746002005F0E3F905F0C7FF20FA03
:1037A00007F720FA06F46B788BB13146687805F09C
:1037B000E9F906466B78BBB978B92246394600204C
:1037C000FFF774FE10E00326E0E70126DEE722465D
:1037D00039460120FFF76AFEE7E73A462146002016
:1037E000FFF764FE00E0014E3046F8BD000202041F
:1037F00008B519B1407805F04DF908BD407805F0DD
:1038000073F9FAE708B5407805F05CF908BD0000E7
:103810002DE9F84304460E461546DDF82080DDF814
:10382000249001279F404FEA520C1CEB00004FF000
:10383000000341F100010CF07FFEC9F80000B8421E
:1038400001D9C9F80070B8F1000F19D0D9F80020DB
:103850000023204631460CF06FFE0246294698F8B8
:10386000000003F0A5F80028B8BF4042B8F1000FEF
:1038700008D0D8F80430834206D30020BDE8F8838E
:103880000020F3E70020F9E70048F7E70002020410
:1038900008B590F800C01CF0020F06D14A1E41780E
:1038A0000CF0030004F04CFE08BD00234A1E4178D2
:1038B0000CF0030004F0A8FEF6E770B584B00446EF
:1038C0000D46164605F062FF0146237813F0020FFD
:1038D0000ED013F0010F24D01D2303AA01920096ED
:1038E0002A464801C90EFFF793FFE0B104B070BD4E
:1038F00013F0010F13D0102303AA019200962A4659
:1039000008460021FFF784FF0028EFD12078039AB2
:10391000013A617800F0030004F012FEE6E70823A4
:10392000EAE71523D9E7039B5A09207803F01F0320
:10393000013A617800F0030004F066FED6E708B5AE
:103940000378417803F0030005F039FF08BD08B59E
:1039500031B10378417803F0030004F03BFF08BD68
:103960000378417803F0030004F076FFF7E708B529
:103970000378417803F0030004F0A0FF08BD0000C5
:1039800000487047D85001102DE9F04182B0074639
:103990000D469046084603F03DF8C6B2002401E00B
:1039A0000134E4B2B44213D205238DF804308DF80B
:1039B00005508DF8064001A801F084F80346002860
:1039C000EED13D707C700122BA70C7F8048000E02F
:1039D000024B184602B0BDE8F08100BF020E02049F
:1039E00030B583B00C46054678B184B105238DF817
:1039F000043023788DF8053063788DF8063001A8FF
:103A000001F060F828B103B030BD01BEEDE701BEA2
:103A1000ECE7226863682A606B600123AB70F2E711
:103A200008B5034648B11A78122A08D0032A0AD9E1
:103A30005A6812681846904708BD01BEF3E7184659
:103A4000FFF7E0FEF8E71846FFF791FFF4E710B53F
:103A5000034648B11878122808D003280AD95868B4
:103A600044681846A04710BD01BEF3E71846FFF7AB
:103A7000BFFEF8E71846FFF76AFFF4E710B5044603
:103A800068B12046FFF7CCFF98B12378122B08D0FD
:103A9000032B0AD963689B68204698470AE001BE59
:103AA000EFE72046FFF7FCFC04E02046FFF747FF66
:103AB00000E0002010BD10B5034648B11878122868
:103AC00008D003280AD95868C4681846A04710BD12
:103AD00001BEF3E71846FFF7B3FCF8E71846FFF717
:103AE000ECFEF4E708B5034648B11A78122A08D06C
:103AF000032A0AD95A6812691846904708BD01BEC0
:103B0000F3E71846FFF734FEF8E71846FFF7C0FE64
:103B1000F4E708B5034600B101B901BE1A78122ACC
:103B200006D0032A08D95A6892691846904708BDFA
:103B30001846FFF7DBFDFAE71846FFF78DFCF6E7BE
:103B400010B582B0044690B1A37803B901BE052335
:103B50008DF8043023788DF8053063788DF80630C1
:103B600001A800F0F3FF0023A37002B010BD01BE56
:103B7000EAE708B5034648B11A78082A08D0092AA6
:103B800000D001BE184600F0EFFD08BD01BEF3E70E
:103B9000184600F033FAF8E708B5034648B11A783A
:103BA000082A08D0092A00D001BE184600F082FE7B
:103BB00008BD01BEF3E7184600F0C0FAF8E708B503
:103BC000034648B11A78082A08D0092A00D001BE55
:103BD000184600F02DFD08BD01BEF3E7184600F0C1
:103BE000A7F9F8E708B5034648B11A78082A08D0BB
:103BF000092A00D001BE184600F070FD08BD01BEC4
:103C0000F3E7184600F0BEF9F8E708B5844650B16E
:103C10009CF80000082808D0092800D001BE6046A2
:103C200000F038FD08BD01BEF2E7604600F090F9F3
:103C3000F8E708B5034648B11878082808D00928DD
:103C400000D001BE184600F073FE08BD01BEF3E7C8
:103C5000184600F0ADFAF8E708B5034648B11A78FF
:103C6000082A08D0092A00D001BE184600F080FEBC
:103C700008BD01BEF3E7184600F0CAFAF8E710B530
:103C80000446B8B12046FFF7ADFF00B101BE0221E6
:103C90002046FFF7E1FF00B101BEB4F8781059B932
:103CA0002378082B10D02378092B11D094F87A3080
:103CB00093B110BD01BEE5E702222046FFF7B9FF30
:103CC0000028EDD001BEEBE7204600F0F3F8EAE76C
:103CD000204600F05FFCE9E7204600F037FFE8E708
:103CE0000023032B06D8054A52F8232022B90133BA
:103CF000DBB2F6E700207047012070474834000827
:103D000038B5EFF30583103BDBB2343BDBB2032B5A
:103D100000D901BE032B1BD80022032B00D901BE02
:103D2000032B01D901BEFF231C4603EB8202244969
:103D300051F82250032B00D901BE230203F1804326
:103D400003F5281341F28C0299580023184604E029
:103D500001BEFF22E1E70133DBB251B1072B08D8E6
:103D600001229A401142F6D0164A32F8132010432D
:103D7000F1E710F0010F0FD0B5F8643063B1013BEB
:103D80009BB2A5F864303BB940F002006B7D012B7B
:103D900013D00123A5F86430E96E01402B6F1BB1ED
:103DA00011B189B2686F9847032C00D901BE240273
:103DB000054BFF221A511B5938BDAB8FEAE700BFF4
:103DC000483400083851011080102A408000C0B2E9
:103DD0000844C0B20230C0B27047000070B504465B
:103DE00000F11401443003F00FF900284FD1221DD7
:103DF000A1782A4803F094F800284AD1A378032B2D
:103E000000D901BE254A02EB032341F28801FF20BD
:103E10005850136843F000431360A378032B00D974
:103E200001BE1B021E4AD35813F0180F1AD1607836
:103E30008000C0B2A3781844C0B200F13406354601
:103E4000E36EDBB90321174A284600F0FBFF10BBE5
:103E500006F01F066D09012303FA06F6124B43F81C
:103E6000256015E0A378032B00D901BE1A020C4B84
:103E70001344FF221A601B680C4809E006F16043F6
:103E800003F5614393F800134909C9B2DBE7084819
:103E900070BD0748FCE70648FAE700BF00002A406B
:103EA00080102A40013D001000E100E003060204FA
:103EB0000106020410B50446443003F027F8A17847
:103EC000164803F05FF863789B00DBB2A2781344D6
:103ED000DBB203F1340202F01F01530901228A40D0
:103EE00020330F4941F82320BFF34F8FBFF36F8F6B
:103EF00063789B00DAB2A3781344DBB2094A00214D
:103F000042F82310FFF7ECFE00B110BD064802F0A6
:103F100013F8064B00221A70F7E700BF00002A4092
:103F200000E100E04834000880230008583400080D
:103F30008378032B00D901BE044910331B02CA58F1
:103F400042F00042CA500020704700BF00002A40E3
:103F500093B1C36E1943C16643789B00DBB281788D
:103F60000B44DBB234335201D2B203F1604303F5A8
:103F7000614383F800237047C36E23EA0101C166E1
:103F8000EAE70000054B9B68DBB2817801228A409A
:103F90001A4214BF01200020704700BF00002A40D1
:103FA00038B5022922D0082920D0012914D001BE19
:103FB00019E000231D430134E4B2032C0FD875B976
:103FC0000C4B53F824000028F3D0FFF7DBFF08B1B7
:103FD0000123EFE70023EDE700242546EDE785F018
:103FE0000105054B1D70044B187838BD024B0022AB
:103FF0001A70F8E7483400085834000838B5044609
:104000000D46FFF7BFFF002840F085806B69B3F5D0
:10401000803F00F28280012B12D91BB12A69B2EBDA
:10402000034F7CD82B682362AB686362AB7B082BA1
:104030000CD0102B40D0202B73D10223A37607E0A5
:104040002A69B2F5803FE8D9384857E00023A376C3
:1040500000232377E376A36E022B30D0012B31D0DF
:1040600004F1440323642B7E012B2DD90123E37536
:10407000B5F90430A362B5F90C30E3626B6933B370
:104080002A69B2FBF3F103FB1123002B4BD102236E
:1040900063776A6922632B69B3FBF2F3E363B5F9D3
:1040A00004306A6902FB03F36363B5F90C306A6993
:1040B00002FB03F3A3630EE00123A376C8E7012309
:1040C000E376CDE72377CBE70023E375D0E7012341
:1040D00063772B6923636B691BB12B7E7BB1022B4A
:1040E0000DD00123A4F8643002236375B4F878304E
:1040F0000BB9022323762046FFF770FE38BDE36B31
:10410000A4F8643001236375B4F87830002BF2D141
:1041100001232376EFE70648F0E70448EEE703487B
:10412000ECE70448EAE70448E8E700BF08060304B0
:1041300005060204000602040406020410B5044643
:10414000FFF720FF20BB144B1B781BBB6278A378C2
:104150009200D2B21344DBB20233DBB20F49CC5C23
:10416000CA56002A0DDB0E4AD05C40EA0420022128
:1041700040F0804006F084F90A4B984206D00020B7
:1041800010BD02F06F0242F01004ECE70648F7E7BA
:104190000548F5E70548F3E758340008704A011070
:1041A000E84F01100200CE0006060104031A0204C3
:1041B000022A27D810B50C468378032B00D901BEFC
:1041C000114910331B02CA5822F00042CA50436CF6
:1041D00023F0C003436443F0800343648378032BDC
:1041E00000D901BE084910331B02CA5842F00042F0
:1041F000CA5081784078FFF7E9FD0146204600F07B
:10420000CFFD10BD0148704700002A40010602049E
:1042100002291ED88378032B00D901BE0E49103322
:104220001B02CA5822F00042CA50436C23F03003EC
:10423000436443F0300343648378032B00D901BE09
:10424000054910331B02CA5842F00042CA500020F0
:1042500070470248704700BF00002A400106020470
:104260000023392B06D8054A52F8232022B90133FE
:10427000DBB2F6E700207047012070475C3400088D
:10428000C0EBC00300EB830051FA80F0C0B20630EF
:10429000C0B2704738B5EFF305839BB2A3F11002AB
:1042A00092B2A3F1480189B21C2907D9A3F1650094
:1042B00080B21C280CD901BEFF2000E000201C2980
:1042C00008D9653B9BB21C2B6FD901BEFF2303E0CD
:1042D0000120F4E7383AD3B2C0EBC00200EB82020F
:1042E0001D4613443E4A52F82320002860D13D4C1D
:1042F0003C4B9C425ED03C4B1B6893F836309D4251
:1043000034BF0023012303B101BE374B1968B1F854
:104310005E302344B1F8601001FB05335B6803F0A5
:104320000F03082B00D901BE082B4CD82F4931F8B8
:10433000131011F0010F0FD0B2F8643063B1013BDC
:104340009BB2A2F864303BB941F00201537D012BCE
:104350003BD00123A2F86430D36E1940136F1BB118
:1043600011B189B2506F98471E4B9C422FD01E4B03
:104370001B6893F836309D4234BF0023012303B1FC
:1043800001BE194B1A68B2F85E302344B2F86010CF
:1043900001FB053301211961B2F85E301C44B2F80B
:1043A000603003FB0544236938BD553AD3B293E727
:1043B0000F4C9DE70C4B1B6893F835309D4234BF82
:1043C000002301239FE70021B3E7938FC2E7064B49
:1043D0001B6893F835309D4234BF00230123CEE79C
:1043E0005C34000800002840803600084851011065
:1043F0000000294038B5044600F11401443002F0B1
:10440000A7FB002840F0B1806378002B5DD15A4DA6
:10441000221DA178284602F0A9FC002840F0A780C0
:10442000A178554B9D4252D0544B1B6893F83620CF
:10443000914234BF0022012202B101BE4F4B1A68E3
:10444000B2F85E302B44B2F8602002FB0133012247
:104450009A612B6843F000432B60A178464B9D4244
:104460003ED0464B1B6893F83620914234BF002261
:10447000012202B101BE414B1A68B2F85E302B44F2
:10448000B2F8602002FB01331B69043B012B30D9D9
:10449000637813B9A5781C2D57D9012B57D001BECD
:1044A00040F2FF35E36E002B56D10321344A2846F3
:1044B00000F0C8FC00285CD105F01F026D09012343
:1044C0009340304A42F8253052E02F4DA0E72B4B65
:1044D0001B6893F83520914234BF00220122ABE7DC
:1044E000264B1B6893F83520914234BF00220122ED
:1044F000BFE7A178204B9D421ED0204B1B6893F84C
:104500003630994234BF0023012303B101BE1B4B57
:104510001A68B2F85E302B44B2F8600000FB013339
:1045200001201861B2F85E301D44B2F8603003FB20
:1045300001552B6915481BE0104B1B6893F835306B
:10454000994234BF00230123DFE73835AAE7A57875
:104550001C2DA4D85535A5E705F1604303F561434B
:1045600093F800134909C9B2A0E7094800E00848D8
:1045700038BD0748FCE700BF00002840803600082F
:104580009542001000E100E000002940030602040B
:104590000106020410B50446443002F0DBFB6378E8
:1045A0004BBB1D48A17802F06FFC627812B9A3786A
:1045B0001C2B22D9012A22D001BE40F2FF3303F086
:1045C0001F015B0901228A402033144941F823204E
:1045D000BFF34F8FBFF36F8F6378C3EBC30203EB5F
:1045E0008203A27813440E4A002142F82310FFF7F9
:1045F00037FE48B110BD0B48D4E73833DFE7A37866
:104600001C2BD9D85533DAE7074801F095FC074B46
:1046100000221A70EEE700BF0000284000E100E031
:104620005C3400080000294090230008443500084D
:104630004378EBB9144A837813498A421AD0134954
:10464000096891F836108B4234BF0021012101B175
:1046500001BE0E490968B1F85E00B1F8601002446D
:1046600001FB03F3D15841F00041D15000207047C5
:10467000074AE0E70549096891F835108B4234BFD5
:1046800000210121E3E700BF000028408036000838
:1046900000002940ABB1C36E1943C166417811B91E
:1046A00083781C2B12D9012912D001BE40F2FF33AE
:1046B0005201D2B203F1604303F5614383F8002352
:1046C0007047C36E23EA0101C166E7E73833EFE7BD
:1046D00083781C2BE9D85533EAE7000043786BB99F
:1046E000074B084A1268B2F85E100B448178B2F8A2
:1046F000602002FB01335868C00F7047024BF0E79F
:1047000000002840803600080000294038B5022902
:1047100022D0082920D0012914D001BE19E000239D
:104720001D430134E4B2392C0FD875B90C4B53F842
:1047300024000028F3D0FFF7D1FF08B10123EFE7F1
:104740000023EDE700242546EDE785F00105054B44
:104750001D70044B187838BD024B00221A70F8E720
:104760005C3400084435000838B504460D46FFF7B0
:10477000B5FF002840F08C806B69B3F5807F00F2B4
:104780008980012B1BD923B12A69B2EB032F00F2D8
:1047900083802B682362AB68636204F14403236463
:1047A0002B7E012B11D90123E375AB7B082B0FD096
:1047B000102B50D0202B71D1022363760AE02A6996
:1047C000B2F5807FDFD9374844E00023E375ECE79A
:1047D000002363760023E376A376A36E022B3DD0FD
:1047E000012B3ED06B6933B12A69B2FBF3F103FBB5
:1047F0001123002B54D1B5F90430A362B5F90C3064
:10480000E3626B697BB3022323776A6922632B69B6
:10481000B3FBF2F3E363B5F904306A6902FB03F317
:104820006363B5F90C306A6902FB03F3A3636B6938
:104830001BB12B7E03B3022B1ED00123A4F86430DE
:1048400002236375B4F878300BB90223237620462F
:10485000FFF7D0FD38BD01236376BBE70123A376C4
:10486000C0E7E376BEE7012323772A692263E36387
:1048700000236363A363DAE7E36BA4F864300123E6
:104880006375B4F87830002BE1D101232376DEE79D
:104890000548DFE70348DDE70248DBE70348D9E7DF
:1048A0000348D7E7080603040506020400060204CD
:1048B0000406020410B50446FFF710FF38BB164B80
:1048C0001B7833BB6378A278C3EBC30103EB81038E
:1048D00052FA83F3DBB20633DBB21049CC5CCA5622
:1048E000002A0DDB0E4AD05C40EA0420022140F091
:1048F000804005F0C5FD0B4B984206D0002010BD4E
:1049000002F06F0242F01004ECE70748F7E70648B0
:10491000F5E70648F3E700BF44350008704A011088
:10492000E84F01100200CE0006060104031A02043B
:10493000022A19D838B504460D46B0F8783003B9C4
:1049400001BE636C23F0C003636443F080036364BF
:10495000A1786078FFF794FC0146284600F020FA21
:1049600008B9A4F8780038BD004870470106020471
:10497000022908D8436C23F03003436443F030032A
:104980004364002070470148704700BF01060204DD
:1049900070B504280DD00D46114602463C4C34F843
:1049A00010E0441C1D2C07D8E4B2394E36F81440F0
:1049B00004E00D250520F0E740F231144FF0010C22
:1049C0000CFA02FC334A0CEA02023AB9AE44A3F8EC
:1049D00000E01B88A34258D2002070BDC21E182AD6
:1049E00032D8DFE802F00D313431310F2531293171
:1049F000313131312B312D3131313131312F2700EE
:104A0000254A00E0254A1C80002AE2D003381828F5
:104A100036D8DFE800F01E353835351E2F353135F4
:104A2000353535351E351E353535353535331E00B2
:104A30001B4AE8E71B4AE6E71B4AE4E71B4AE2E7B2
:104A40001B4AE0E71B4ADEE701BE0022DBE71A4A09
:104A5000D9E70126B542BCD232F81500704411FAEC
:104A600080F11980691CB142B3DA32F81140744404
:104A7000A4B2AEE70226EDE71026EBE70226E9E74F
:104A800001BE0026E6E71A26E4E70C48A5E700BFCA
:104A9000CC510110280B0A0C5C51011094510110EB
:104AA00098510110C85101109C510110BC510110C6
:104AB000C0510110C451011060510110000E0204D8
:104AC00000207047F0B583B004460027FEF7B1FC24
:104AD00006460DF10603A27861782078FFF758FFAB
:104AE000054668B9BDF80630C3F3C70203F00703F3
:104AF0001449895C012202FA03F3194218BF1746D0
:104B000005B9EFB92DB13046FEF797FC284603B042
:104B1000F0BD0DF10603A27861782078FFF738FF29
:104B200005460028EFD1BDF80630C3F3C70103F0F6
:104B30000703044801229A40435C13434354E2E7CD
:104B4000014DE0E748350008010E020430B583B09E
:104B50000446FEF76EFC05460DF10603A278617867
:104B60002078FFF715FF024660B9BDF80630C3F3A1
:104B7000C70003F00703074C01219940235C23EA97
:104B80000103235402B101BE2846FEF756FC03B0D0
:104B900030BD00BF4835000802460023184603B167
:104BA000704702B118460133DBB2F8E710B504468E
:104BB000FFF7F2FF204610BD002001E00130C0B237
:104BC000102805D8044B1B5C002BF7D040B270476F
:104BD0004FF0FF30704700BFDC4A011038B5044683
:104BE0000D46FFF7E9FF114B1B5D83B1104B1A68AF
:104BF0009368B2F870100B44201A1030B2F872109B
:104C000001FB00F000EB8501C858C0B238BD084B6D
:104C10001A689368B2F870100B44B2F8720004FB83
:104C200000F000EB8500C058EFE700BFDC4A011040
:104C3000803600082DE9F84304461E469DF8208082
:104C40009DF82470224B1B5CC3B1411ACCB22046A4
:104C5000FFF7ACFF46EA00262046FFF79DFF46EA35
:104C6000004040F0804040F4805027B1424600218F
:104C700005F078FB23E005F0C3FB20E01546FFF7C5
:104C800095FF4FEA002945EA00252046FFF784FFFB
:104C900045EA004549EA060949EA004949F08041E8
:104CA0007FB90C4B1A689368B2F870100B44B2F8D5
:104CB000720000FB04F404EB86040020E050BDE821
:104CC000F88343460022284605F0F0FAF7E700BFD4
:104CD000DC4A0110803600082DE9F04782B00C460E
:104CE0009046C0F3470600F00107FFF765FF8146D5
:104CF000244B1D5D1B57002B04DB234B13F804A032
:104D0000002416E005F07F0555FA80F5EDB2F4E7D2
:104D1000B8F1010F14BF00230123019300975346FC
:104D2000E2B25FFA89F12846FFF784FF22E00134FE
:104D3000A4B22A46154B33F81530A34219D9144BA7
:104D400053F825301B5DB342F1D1124B9B5C1BB174
:104D50001FFA8AF3A34210D1B8F1020F04D05146D2
:104D60002846FFF73BFF50B9B8F1000FD0D1002023
:104D700000E0094802B0BDE8F0870748FAE70748B5
:104D8000F8E700BF704A0110E84F011054500110BD
:104D900018230008DC4A0110010D0204000D020472
:104DA00008B50222FFF798FF08BD000070B582B079
:104DB0000D468378772B16D8DA08134909688E696F
:104DC00006EBC216C27803F00704009201232A46BC
:104DD0002146304602F0A2FA0A2D08D00B2D0CD045
:104DE000002002B070BD084A12689669EAE7012205
:104DF0002146304602F0ECFAF2E700222146304626
:104E000002F0E6FAECE700BF8036000810B582B089
:104E10000146772810D8C308094A1268906900EB48
:104E2000C310002400940123082201F0070102F0BE
:104E300075FA204602B010BD014B1B689869F0E777
:104E40008036000800B583B0ADF80000019111462E
:104E5000684604F017FD03B05DF804FB9D2804D0FC
:104E600001BE002313700B707047002313700B708A
:104E70007047000001460023184605E0044A52F836
:104E8000212052F82300013308B9002BF6DD7047CA
:104E900008520110074B1B785BB905E0064A002158
:104EA00042F823100133DBB2002BF7D0014B012273
:104EB0001A7070476F3500088829000838B5044615
:104EC0000B46E2B19446117EB3FA83F25209914245
:104ED00001D0194838BD00F110020CF1100103C9CE
:104EE00082E803009CF81820227612BB1A88BCF8CE
:104EF00010309A4201D01048ECE70020EAE731B1C7
:104F00001034D1E9000184E803000020E2E700F159
:104F1000100501231A4600F10801284601F098FD0A
:104F20000028D7D1012121760A462846FEF78FFDB9
:104F3000D0E70020CEE700BF0112020438B50546D5
:104F400048B1394B1B7803B901BE2B7A1E2B4BD0CD
:104F50000023012406E001BEF3E7012200E0012264
:104F6000144001336CB16A7A002B0ADC2F4951F8E6
:104F7000222052F82320002AF1D09542EDD00022C1
:104F8000EEE705F1AC0000F0D7FF686898B164BBAC
:104F9000AA7A274B33F91230002B0CDB03F01F01E8
:104FA0005B0901228A402033224941F82320BFF3C4
:104FB0004F8FBFF36F8F6A7A1C4B53F82230AA7A57
:104FC00053F82210A94213D00CB12B78A3B10023BF
:104FD0006B601E232B722B789BB10CB12B7ECBB94F
:104FE00095F82C301E2B1AD138BD02F05FFECFE7AA
:104FF000002143F82210E7E705F10800FFF7A6FDBE
:10500000E5E705F10B0001F03AFC05F10C0001F0B9
:1050100036FCE2E705F11000FEF792FDE0E705F14E
:105020002C00FEF72CFEDFE76F3500080852011058
:10503000A023000800E100E0034668B393F8A9202C
:1050400062BB83F8A8205A68D2F8001341F480317B
:10505000C2F80013D2F8001321F48031C2F8001313
:1050600059680A6A42F001020A625A682D21C2F8A0
:1050700000135A684FF48031C2F8001FD2F8002F95
:105080005B68D3F8082F114332F4CA0200D001BE86
:10509000C3F8081F0020704701BECFE700487047E3
:1050A000031A0204034628B15B68186A003818BF67
:1050B0000120704701BEF7E7034670B15B68D3F883
:1050C000002342F48032C3F80023D3F8002322F4F3
:1050D0008032C3F800230020704701BEEEE70000D5
:1050E00070B504461D463C4B436072B10026627A9F
:1050F0003A4B53F82230A27A43F822406B7C032BC0
:105100005BD8DFE803F00A5D56582946184602F0DE
:1051100011FD064600284AD1E9E71023082B51D893
:10512000012384F82830002323626362AA6912F401
:10513000803F00D0012312F4802F01D043F00203FE
:1051400012F4001F01D043F0040312F4800F01D0C9
:1051500043F00803E361002384F8A83084F8A93001
:105160001F4AC4F8AC20062284F8B020C4F8B83036
:10517000C4F8B440142384F8B13004F1AC0000F05A
:10518000CFFEA27A174B33F91250174A0321284653
:10519000FFF758FE002D07DB05F01F026D09012304
:1051A0009340124A42F825302046FFF785FF3046EB
:1051B00070BD1423B2E71823B0E701BE1823ADE792
:1051C0001223ABE7102B03D8022384F82830AAE778
:1051D000042384F82830A6E70000A04008520110FC
:1051E00099570010A02300085155001000E100E07D
:1051F0002DE9F04F8BB08A4691469B460546002824
:105200003BD0C422002128460BF0BEFBFFF742FE34
:105210001E232B72FF22EA722A7385F82C3080231A
:105220006B7600240094234602229849504601F0F0
:10523000F9FA06460094234602229549484601F0B1
:10524000F1FA80467EB300283AD0337802789A4249
:1052500015D00023002B36D014232B7230786872BF
:105260007378AB728B4A6A608B4A52F8202052F8EE
:10527000233063B10027894C18E001BEC1E7727882
:1052800043789A4201D02346E4E70123E2E7FFF79F
:10529000F1FD074608B1002407E005F10800FFF71B
:1052A00011FC044601E037467D4C7CB1C4B10CB31F
:1052B0003CB3002C40F0E68020460BB0BDE8F08FF8
:1052C0000746774CF1E70027754CEEE7082130469A
:1052D00001F0FAFA04460028E8D185F80BA0E5E7CA
:1052E0000621404601F0F0FA04460028DFD185F897
:1052F0000C90DCE73A4659462846FFF7DFFD0446A6
:10530000D6E703AEDFF8A4C1BCE80F000FC69CE8E7
:10531000070086E80700149B1E684BF680339E4208
:1053200000F2A880149B1B7903FB06F605F1100020
:10533000FEF7A4FB01464FF001084FF0FF3C4FF091
:105340000209C246C34621E0521A944503D9944645
:105350009946C246F3460133DBB2102B05D803FB56
:1053600000F29142F0D98A1AEFE70EF1010E5FFACE
:105370008EFEBEF1040F05D808FB0EF006FB00F010
:105380000223EAE708F101085FFA88F8B8F1040F90
:1053900001D8C646EDE70BF1FF3B8DF80CB00AF1E2
:1053A000FF3A8DF80DA009F1FF398DF80E90149B8E
:1053B0001B795B088DF81030149B5B79012B1ED094
:1053C000022B20D063B1374C002C7FF472AF03ABBB
:1053D0003A464FF0FF312846FFF782FE044668E761
:1053E00001238DF81130149B9B79103B082B43D877
:1053F000DFE803F00D423442384242423C000223CF
:105400008DF81130EFE703238DF81130EBE700231F
:105410008DF81D30149BB3F9083003F1180292B2D5
:105420002D2A2BD8149AB2F90A20183292B22D2ABA
:1054300026D85BB219331C4A82FB0301A1EBE3734C
:105440008DF81F30149B93F90A3003F1190182FB88
:105450000123A3EBE1738DF82030B5E701238DF82C
:105460001D30D7E702238DF81D30D3E703238DF8D5
:105470001D30CFE70B4CA7E70A4CA5E7094CA3E783
:10548000084CA1E72846FFF759FD15E740490110F0
:10549000384901100000A04008520110010E02041A
:1054A0000012020401120204565555551052011003
:1054B0008446B0B19CF8A83003B91360DCF804301E
:1054C000D3F804331068DBB2984200D913609CF81B
:1054D0002830012B11D09CF82830022B1AD0002341
:1054E00021E001BEE6E7DCF80400D0F80803C85468
:1054F000013310689842F6D8EDE70023F9E7DCF8AD
:105500000400D0F8080321F8130001331068984212
:10551000F5D80BE00023F9E7DCF80400D0F8080325
:1055200041F82300013310689842F5D800207047F5
:10553000034638B1D3F8C02042B1D3F8BC301BB118
:105540000120704701BEF5E700207047002070473A
:10555000F0B589B0EFF3058010380DF11E020DF1A2
:105560001F0100B2FFF77AFC9DF81F20894B53F80A
:1055700022309DF81E2053F82240002C00F00881B4
:105580006268D2F8003F33F4CA0100D001BEC2F80D
:10559000003FD2F8002F13F4803F3DD1002513F4D3
:1055A000802F01D045F0020513F4001F01D045F013
:1055B000040513F4800F01D045F0080515F0050F20
:1055C00000F0DF8094F8A830002B00F0AD80D4F814
:1055D000BC30002B00F0D58094F82C301E2B1DD051
:1055E000D4F8C030002B45D1D4F8C030002B40F0A7
:1055F000C880C4F8BC30E36913F0010F40F0C180EB
:105600006368D3F8082F22F4803132F4CA0200D044
:1056100001BEC3F8081FB4E00125C0E7D4F8C030CC
:1056200033B9D4F8C030002BDED145F01005DBE7EC
:1056300000936A46D4F8BC102046FFF739FF009E5D
:10564000D4F8C0309E4200D901BEFDF7F2FED4F876
:10565000C0309B1BC4F8C03053B1D4F8BC3094F8B0
:10566000282002FB0633C4F8BC30FDF7E6FED8E77D
:105670000023F8E704F12C00FEF7B4FA0028B3D1B8
:10568000667ED4F8C070BE4222D2636803F54273CE
:1056900000930023ADF80430D4F8BC20029201221C
:1056A000ADF80C2094F82820D2008DF80E20049636
:1056B00005938DF8183004F12C0769463846FEF73B
:1056C00058FA034668B18BB1002B8DD001BE8BE731
:1056D00001230322194604F12C00FEF796FA3E46F8
:1056E000D3E73846FEF76BFA0346ECE7D4F8C03050
:1056F0009E4200D901BEFDF79CFED4F8C0309B1B32
:10570000C4F8C03073B1D4F8BC3094F8282002FB40
:105710000636C4F8BC60FDF790FE3846FEF73CFA4A
:105720000346D1E70026F4E705F0FA05002303E07D
:105730006268D2F8082301332D2BF9DD637E013B2B
:105740006268DBB2C2F8003363684FF48032C3F89A
:10575000002FD3F8003F2046FFF7EAFE70B9E36957
:1057600013F0010F0AD16368D3F8082F22F48031B7
:1057700032F4CA0200D001BEC3F8081F012384F826
:10578000A830E169294003D0236A0BB1606A9847C9
:1057900009B0F0BD0852011010B51446022917D007
:1057A000082915D0012901D001BE06E01046FFF7F7
:1057B00079FC28B1002384F8A93094F8A90010BD21
:1057C0002046FFF7B5FE08B90123F4E70023F2E70E
:1057D000002384F8A930F0E770B582B00D46164674
:1057E0000446002845D094F8A930002B71D12046FA
:1057F000FFF79EFE00286ED1A27A384B33F91230A3
:10580000002B0CDB03F01F015B0901228A402033CF
:10581000334941F82320BFF34F8FBFF36F8FC4F894
:10582000BC50C4F8C06094F8A8301BB194F82C3078
:105830001E2B20D0D4F8C03053B16368D3F8082FA2
:1058400042F4803132F4CA0200D001BEC3F8081F0E
:10585000A27A224B33F91230002B07DB03F01F0131
:105860005B0901228A401E4941F82320002002B032
:1058700070BD01BEB7E7019601AA29462046FFF791
:1058800017FE019DD4F8C0309D4200D901BEFDF73E
:10589000D0FDD4F8C0305B1BC4F8C030BBB1D4F825
:1058A000BC3094F8282002FB0535C4F8BC50FDF745
:1058B000C4FDD4F8C030002BBCD1236A002BB9D072
:1058C0000022C4F8BC201021606A9847B2E7002586
:1058D000EBE70448CBE70448C9E700BFA023000872
:1058E00000E100E0031A02040212020470B504464B
:1058F0000E461546FDF79DFD26626562FDF79DFD8E
:1059000070BD00002DE9F04104460F46154698464B
:105910000A4605212A4800F0BDFF0646B8F1000FEF
:1059200025D0E1693943E161636830F4CA0200D0EF
:1059300001BEC3F8006FD3F8003F6368D3F8080FC7
:10594000064336F4CA0200D001BEC3F8086FA27A3B
:105950001C4B33F91230002B2ADB6D01EDB203F141
:10596000604303F5614383F80053BDE8F081E169CA
:1059700021EA0701E161FDF75CFD074694F8A830D4
:1059800073B16268D2F8083F23EA060636F4CA0308
:1059900000D001BEC2F8086F3846FDF74EFDD6E7CD
:1059A0002046FFF7C5FD0028EBD026F48036E8E757
:1059B00003F00F036D01EDB2034AD554D5E700BFE4
:1059C0002C520110A023000814ED00E038B5034666
:1059D000084850F82340084850F8235044B12DB1EE
:1059E000002318460BB92046A84738BD0123F8E725
:1059F0000123F6E7A8350008743500082DE9F041C9
:105A000005468846084600F0BBFF064600240127ED
:105A100018E0022229463046FFF7D8FF0136F6B2D9
:105A2000B442F6D8B8F1020F1BD0B8F1080F18D065
:105A3000B8F1010F18D1BFB10D4B01221A7013E05C
:105A40000134E4B20C2CEDD8324629462046FFF74B
:105A5000BDFF07460028F3D1B8F1010FF0D10026B1
:105A6000DEE7034B00221A703846BDE8F08100BF24
:105A700070350008024600200C2806D8044B1B5C39
:105A8000934203D00130C0B2F6E7FF20704700BF59
:105A90007852011008B5123820282CD8DFE800F021
:105AA000212B2B2B2B2B2B2B2B2B2B2B2B2B2B2B50
:105AB0002B2B2B2B2B112E1317191B1D1F232527C7
:105AC0002900002000E00220FFF7D4FF08BD0320DA
:105AD000FAE70420F8E70520F6E70620F4E70720B8
:105AE000F2E70820F0E70920EEE70A20ECE70B20B8
:105AF000EAE70C20E8E701BEFF20E5E70120E3E745
:105B000008B5EFF30580103800B240F2FF33984239
:105B100005D0FFF7BFFF034B53F8200008BD00205E
:105B2000FCE700BFA83500082DE9F04383B08046AC
:105B30000E4617469946002416E099F802206B7825
:105B40009A4201D0002325E0012323E017238DF89A
:105B50000430735C8DF805306B788DF8063001A841
:105B6000FEF7B0FFC8B10134BC421AD2A10006EB67
:105B7000840595F802C0C445F5D1B9F1000FE5D010
:105B800099F80030172BE1D199F80120735C9A4203
:105B9000D3D00023002BE6D004E001A8FEF7D6FF07
:105BA00000E00025284603B0BDE8F0832DE9F0436E
:105BB00083B007460D4616460024A14600E0013496
:105BC000B44220D24FEA840805EB840393F802C064
:105BD000BC45F4D117228DF8042015F824208DF847
:105BE00005205B788DF8063001A8FEF76BFF0028D2
:105BF000E5D101A8FEF7AAFF15F80820012393407C
:105C000049EA0309DBE7484603B0BDE8F08300003A
:105C1000014B1878704700BF7035000838B50C4646
:105C20001546FFF727FF124B43F82040114B43F86E
:105C3000205000231A4601E00133DBB20C2B08D8B8
:105C40000B4850F823000028F6D0012A07D0013273
:105C5000F2E72AB904B101BE074800F06DF938BD7A
:105C6000012AFCD1002CFAD0034800F059F9F6E7DC
:105C7000A835000874350008A42300082DE9F04178
:105C80000446884616461F4604E0012288F8002094
:105C9000E2B1E46840F28975AC4217D02568002D66
:105CA000F7D094F804C036EA0C03F2D1637937EAEE
:105CB0000303EED0A26839463046A8470028E4D155
:105CC000012F01D00122E1E70022DFE72046BDE8F5
:105CD000F08170B504460D46164600E0E468AC421B
:105CE0000FD02368002BF9D0217936EA0102F5D1D3
:105CF000627912F0020FF1D1A26802213046984772
:105D0000ECE770BD38B505460C46FDF792FBE3683D
:105D100013B1FDF792FB38BD2B68E3602C60F8E708
:105D200038B504460D46FDF784FB01E003F10C0491
:105D3000236840F28972934205D0AB42F6D1EB68FA
:105D400023600023EB60FDF778FB38BD2DE9F041BF
:105D500082B00D4600F020FE044601238DF8073086
:105D6000022808D0082806D0102804D01A4B1E6834
:105D70001A4B1F6803E0184B1F68184B1E68234618
:105D80002A460DF107013846FFF778FF80469DF857
:105D9000073063B930469DF807300BB9012C0ED09F
:105DA0009DF80730B3B1002002B0BDE8F081234672
:105DB0002A460DF107013046FFF760FFEBE72A4660
:105DC00001463046FFF785FF2A4641463846FFF731
:105DD00080FFE5E70248E7E7B8230008B42300089E
:105DE000FF00420038B50C4610212046FFF7AEFFF9
:105DF0000546042C01D0284638BD002003F0B6FC2F
:105E00000349A1FB0031890C012003F037FEF2E7C2
:105E100083DE1B4338B50C4608212046FFF796FF6A
:105E20000546082C01D0284638BD002003F09EFC12
:105E30000349A1FB0031890C002003F01FFEF2E7AB
:105E400083DE1B4308B508460421FFF77FFF08BD2A
:105E500010B50446FFF77AFF042C02D0082C17D0A7
:105E600010BD4FF0E0231B6913F0010F04D00E4B5F
:105E70001B7813B1012300E000230C4A1370002BA0
:105E8000EED04FF0E022136923F001031361E7E73E
:105E9000064B1B78002BE3D04FF0E022136943F050
:105EA00001031361DCE700BFDE3500087836000827
:105EB00008B50846012902D1044B1B881BB90221F1
:105EC000FFF7C6FF08BD0248FCE700BFDC3500084D
:105ED000FF00420008B508460121FFF7B9FF08BDE1
:105EE00038B584468E4615460C4C0FCCCCF80000D5
:105EF000CCF80410CCF80820CCF80C3007CCCCF847
:105F00001000CCF81410CCF81820CCF800508CF805
:105F100004E0604603F034FF38BD00BFA452011016
:105F200008B5014618B10348FFF7ECFE08BD01BEF5
:105F3000F9E700BFB823000808B5014618B10348C7
:105F4000FFF7EEFE08BD01BEF9E700BFB823000869
:105F500008B504F00BF938B9164A00211648FFF7C6
:105F6000BFFF20B9154808BD03F054FFF4E7144AF9
:105F700001211448FFF7B4FF08B91048F3E7124AAB
:105F800002211248FFF7ACFF08B90C48EBE7104AB2
:105F900003211048FFF7A4FF08B90848E3E70E4AB9
:105FA00004210E48FFF79CFF08B10020DBE70348FF
:105FB000D9E700BFD55E001058360008011A020468
:105FC000B15E0010E8350008455E00100436000898
:105FD000155E00103C360008E55D00102036000814
:105FE000024600B101BE024B43F82210704700BFC9
:105FF00074360008012803D0022803D1032070471B
:1060000002207047002070470138032809D8DFE8D4
:1060100000F0020B0406022070470620704708209B
:10602000704701BE0220704704207047814206D9A4
:10603000091A642303FB01F1B1FBF0F07047411A28
:10604000642303FB01F1B1FBF0F070472DE9F04F41
:1060500087B004460D46174698469DF840901E238B
:10606000037100234373FF23C3710372437283726E
:10607000994218D0FF2F1AD0FF2D02D1FF2F00F028
:10608000DF80FDF7D6F982466E4B1E68FF2D13D1D7
:10609000FF2F18D1B8F1FF0F1CD1B9F1FF0F20D19C
:1060A00036B300232BE09945E4D0674E9CE0B8F16D
:1060B000FF0FE1D0644E97E0132264492846FFF7B2
:1060C00075FD0640E4E7132261493846FFF76EFD8F
:1060D0000640DFE712225F494046FFF767FD0640B2
:1060E000DBE712225C494846FFF760FD0640D7E730
:1060F0005046FDF7A2F9544E76E00133DBB226FAA2
:1061000003F212F0010FF8D017228DF814208DF849
:10611000153000238DF8163005AB13224B49284665
:10612000FFF702FD834605AB132249493846FFF7C6
:10613000FBFC029005AB122246494046FFF7F4FCF7
:10614000019005AB122244494846FFF7EDFC03904D
:10615000FF2D02D0BBF1000F0DD0FF2F01D0029B0D
:106160004BB1B8F1FF0F01D0019B23B1B9F1FF0F83
:1061700002D0039B03B901BE05A8FEF7A3FC0646A7
:106180005046FDF75AF97EBB059BA3801B0CA371FB
:10619000FF2D2DD10EB9FF2F33D15EB9019B4BB12D
:1061A0000821184600F090FB064618B90123E37257
:1061B00084F809805EB9039B4BB10621184600F0B4
:1061C00083FB064618B90123237384F80A9056B955
:1061D000119BFBB10023637304F11003119A92E841
:1061E000030083E8030016B3304607B0BDE8F08F24
:1061F0000621584600F068FB06460028CAD12572E1
:10620000C8E70821029800F05FFB06460028C4D1C9
:10621000E771C2E701231A46211D04F1100000F0C6
:1062200017FC0646B0FA80F35B096373DBE7217C59
:10623000627C01F00301607902F090FA0646D3E730
:10624000014ED1E740520110001F0204244A011000
:10625000D849011048490110904901102DE9F8432F
:106260000446037AFF2B0CD0D908772B05D84C486D
:106270000068866906EBC11604E0494909688E6921
:1062800000E00026A17AFF290ED0207BD0B1C808FB
:10629000772905D8424D2D68AF6907EBC01704E098
:1062A0003F480068876900E0002703F0070501F018
:1062B0000708013A072A65D8DFE802F0064F64684C
:1062C0006464644F0027F0E7A14659F8180B49466B
:1062D00002F0A2F810F0010F01D0002054E049466E
:1062E000206802F097F810F0010F51D12168D1F821
:1062F0000832C3F30803D1F80822C2F3C032D342F4
:1063000048D1D1F80833C3F30803002B44D176B148
:106310002946304601F03CF884F89800294630467A
:1063200001F064F800222946304600F0BFFF77B143
:106330004146384601F02CF884F899004146384629
:1063400001F054F800224146384600F0AFFF4946BC
:10635000206801F0BBFF012016E02268136843F0BB
:10636000004313602EB194F898202946304600F07F
:106370009DFF9FB194F899204146384600F096FF62
:10638000012001E001BE0020BDE8F8830120FBE709
:106390000020F9E70020F7E70020F5E70120F3E708
:1063A00080360008F8B5314D2E68FFF7A9FB28604C
:1063B000002859D00446014651F8180BD0F88C5FDC
:1063C000D0F8CC7F02F02AF815F0200F09D023680E
:1063D0002022C3F8802FD3F8803FE36C0BB1104626
:1063E000984715F0400F09D023684022C3F8802F4A
:1063F000D3F8803FE36C0BB12020984715F0010FD4
:1064000004D0E36C13B14FF48070984715F4007F0B
:1064100013D023684FF40072C3F8802FD3F8803F65
:106420002268D2F8883F43F4007123F4EE6323F02E
:10643000030303B101BEC2F8881F17F0400F09D053
:1064400023684022C3F8C02FD3F8C03FE36C0BB1E0
:106450001020984717F0010F04D0E36C13B14FF4EC
:1064600000709847014B1E60F8BD00BF7C360008E5
:1064700038B50C46154603F089F905FB04F4B0FB6A
:10648000F4F038BD2DE9F84380460E460824FF2776
:10649000A14601E00134E4B2102C15D806FB04F546
:1064A00003F074F900EB55012246B1FBF5F14046CB
:1064B000FFF7DEFF01463046FFF7B8FDC0B2874266
:1064C000E8D90746A146E5E74846BDE8F88300005D
:1064D00070B504464079FFF7CDFA0546184B53F8DE
:1064E0002000214641F8540B04F1180201F03EFD52
